:020000040000FA
:060000000A128A110C280F
:10000800FE00030EF8000A08F9000A128A11612896
:100018000A128A110F28F001F101F201F301F4012B
:10002800F501F60183010A128A111A287030831625
:1000380003138F040F108316031788018901FF30FB
:100048008316031386008801870103308500831215
:100058000313860188018701831603138113013076
:100068009500011707138717C0308B0020308C00CC
:1000780022309800831603178701903083120313E8
:1000880098000C308316031399004D28831203132C
:100098008714740375040319522853284A285728CB
:1000A8008312031387107408750403195C285D28EC
:1000B80054284D280A128A110C28831203138C1E07
:1000C800662867287D281A08F7007708F600413067
:1000D8007606031D7028712875280130F400003059
:1000E800F50042307606031D7A287B287D28F40126
:1000F800F50179088A00780E8300FE0E7E0E09004D
:04400E00E52FFF3F5C
:00000001FF
