:020000040000FA
:060000000A128A11F42F20
:100EE4007030831603138F040F10831603178801C1
:100EF4008901FF308316031386008801850183125C
:100F040003138601880183160313811301309500AE
:100F14000117071387178B018C0122309800831661
:100F24000317870190308312031398000C30831643
:100F340003139900BD2F72037304031DA22FA32F63
:100F4400B32F4230F4000030F50083160313981CCD
:100F5400AC2FAD2FA72F4230831203139900F20157
:100F6400F30183120313061BB82FB92FBD2FF2010F
:100F7400F301F001F101700371040319C22FC32FAF
:100F84009D2FEA2F72087304031DC92FCA2FDC2F6B
:100F94004130F6000030F70083160313981CD32F5A
:100FA400D42FCE2F41308312031399000130F20065
:100FB4000030F30083120313861BE12FE22FEA2F84
:100FC4000130F2000030F3000130F0000030F10095
:100FD400700871040319EF2FF02FC42FBD2F0A12CC
:100FE4008A110028F001F101F201F301F401F50185
:0C0FF400F601F70183010A128A11722F26
:04400E00E52FFF3F5C
:00000001FF
